{
  "address": "0xeA2Ca8D0BAf4Ff881bBD2b906a8bb8f0805F2E85",
  "abi": [
    {
      "anonymous": false,
      "inputs": [
        {
          "indexed": false,
          "internalType": "address",
          "name": "patientAddress",
          "type": "address"
        },
        {
          "indexed": false,
          "internalType": "address",
          "name": "doctorAddress",
          "type": "address"
        }
      ],
      "name": "AccessGranted",
      "type": "event"
    },
    {
      "anonymous": false,
      "inputs": [
        {
          "indexed": false,
          "internalType": "address",
          "name": "patientAddress",
          "type": "address"
        },
        {
          "indexed": false,
          "internalType": "address",
          "name": "doctorAddress",
          "type": "address"
        }
      ],
      "name": "AccessRevoked",
      "type": "event"
    },
    {
      "anonymous": false,
      "inputs": [
        {
          "indexed": false,
          "internalType": "address",
          "name": "doctorAddress",
          "type": "address"
        },
        {
          "indexed": false,
          "internalType": "string",
          "name": "name",
          "type": "string"
        },
        {
          "indexed": false,
          "internalType": "string",
          "name": "specialization",
          "type": "string"
        }
      ],
      "name": "DoctorRegistered",
      "type": "event"
    },
    {
      "anonymous": false,
      "inputs": [
        {
          "indexed": false,
          "internalType": "address",
          "name": "patientAddress",
          "type": "address"
        },
        {
          "indexed": false,
          "internalType": "string",
          "name": "phone",
          "type": "string"
        },
        {
          "indexed": false,
          "internalType": "string",
          "name": "email",
          "type": "string"
        }
      ],
      "name": "HealthDetailsUpdated",
      "type": "event"
    },
    {
      "anonymous": false,
      "inputs": [
        {
          "indexed": true,
          "internalType": "address",
          "name": "patientAddress",
          "type": "address"
        },
        {
          "indexed": false,
          "internalType": "string",
          "name": "description",
          "type": "string"
        }
      ],
      "name": "MedicalRecordAdded",
      "type": "event"
    },
    {
      "anonymous": false,
      "inputs": [
        {
          "indexed": false,
          "internalType": "address",
          "name": "patientAddress",
          "type": "address"
        },
        {
          "indexed": false,
          "internalType": "string",
          "name": "name",
          "type": "string"
        },
        {
          "indexed": false,
          "internalType": "uint256",
          "name": "age",
          "type": "uint256"
        }
      ],
      "name": "PatientRegistered",
      "type": "event"
    },
    {
      "inputs": [
        {
          "internalType": "string",
          "name": "_description",
          "type": "string"
        }
      ],
      "name": "addMedicalRecord",
      "outputs": [],
      "stateMutability": "nonpayable",
      "type": "function"
    },
    {
      "inputs": [
        {
          "internalType": "string[]",
          "name": "_medicalHistory",
          "type": "string[]"
        }
      ],
      "name": "completeRegistration",
      "outputs": [],
      "stateMutability": "nonpayable",
      "type": "function"
    },
    {
      "inputs": [
        {
          "internalType": "address",
          "name": "doctorAddress",
          "type": "address"
        }
      ],
      "name": "getAccessiblePatientsWithDetails",
      "outputs": [
        {
          "components": [
            {
              "internalType": "address",
              "name": "patientAddress",
              "type": "address"
            },
            {
              "internalType": "string",
              "name": "name",
              "type": "string"
            },
            {
              "internalType": "uint256",
              "name": "age",
              "type": "uint256"
            },
            {
              "internalType": "string",
              "name": "phone",
              "type": "string"
            },
            {
              "internalType": "string",
              "name": "email",
              "type": "string"
            }
          ],
          "internalType": "struct PatientRegistry.PatientDetails[]",
          "name": "",
          "type": "tuple[]"
        }
      ],
      "stateMutability": "view",
      "type": "function"
    },
    {
      "inputs": [
        {
          "internalType": "address",
          "name": "doctorAddress",
          "type": "address"
        }
      ],
      "name": "getDoctorDetails",
      "outputs": [
        {
          "internalType": "string",
          "name": "",
          "type": "string"
        },
        {
          "internalType": "string",
          "name": "",
          "type": "string"
        }
      ],
      "stateMutability": "view",
      "type": "function"
    },
    {
      "inputs": [
        {
          "internalType": "address",
          "name": "patientAddress",
          "type": "address"
        }
      ],
      "name": "getGrantedDoctorsWithDetails",
      "outputs": [
        {
          "components": [
            {
              "internalType": "address",
              "name": "doctorAddress",
              "type": "address"
            },
            {
              "internalType": "string",
              "name": "name",
              "type": "string"
            },
            {
              "internalType": "string",
              "name": "specialization",
              "type": "string"
            }
          ],
          "internalType": "struct PatientRegistry.DoctorDetails[]",
          "name": "",
          "type": "tuple[]"
        }
      ],
      "stateMutability": "view",
      "type": "function"
    },
    {
      "inputs": [
        {
          "internalType": "address",
          "name": "_patient",
          "type": "address"
        }
      ],
      "name": "getMedicalHistory",
      "outputs": [
        {
          "internalType": "string[]",
          "name": "",
          "type": "string[]"
        }
      ],
      "stateMutability": "view",
      "type": "function"
    },
    {
      "inputs": [
        {
          "internalType": "address",
          "name": "patientAddress",
          "type": "address"
        }
      ],
      "name": "getPatientInfo",
      "outputs": [
        {
          "internalType": "string",
          "name": "",
          "type": "string"
        },
        {
          "internalType": "uint256",
          "name": "",
          "type": "uint256"
        },
        {
          "internalType": "string",
          "name": "",
          "type": "string"
        },
        {
          "internalType": "string",
          "name": "",
          "type": "string"
        }
      ],
      "stateMutability": "view",
      "type": "function"
    },
    {
      "inputs": [
        {
          "internalType": "address",
          "name": "patientAddress",
          "type": "address"
        }
      ],
      "name": "getPatientMedicalHistory",
      "outputs": [
        {
          "internalType": "string[]",
          "name": "",
          "type": "string[]"
        }
      ],
      "stateMutability": "view",
      "type": "function"
    },
    {
      "inputs": [
        {
          "internalType": "address",
          "name": "_doctor",
          "type": "address"
        }
      ],
      "name": "grantAccess",
      "outputs": [],
      "stateMutability": "nonpayable",
      "type": "function"
    },
    {
      "inputs": [
        {
          "internalType": "address",
          "name": "doctorAddress",
          "type": "address"
        }
      ],
      "name": "isDoctorRegistered",
      "outputs": [
        {
          "internalType": "bool",
          "name": "",
          "type": "bool"
        }
      ],
      "stateMutability": "view",
      "type": "function"
    },
    {
      "inputs": [
        {
          "internalType": "address",
          "name": "patientAddress",
          "type": "address"
        }
      ],
      "name": "isPatientRegistered",
      "outputs": [
        {
          "internalType": "bool",
          "name": "",
          "type": "bool"
        }
      ],
      "stateMutability": "view",
      "type": "function"
    },
    {
      "inputs": [
        {
          "internalType": "string",
          "name": "_name",
          "type": "string"
        },
        {
          "internalType": "string",
          "name": "_specialization",
          "type": "string"
        }
      ],
      "name": "registerDoctor",
      "outputs": [],
      "stateMutability": "nonpayable",
      "type": "function"
    },
    {
      "inputs": [
        {
          "internalType": "string",
          "name": "_name",
          "type": "string"
        },
        {
          "internalType": "uint256",
          "name": "_age",
          "type": "uint256"
        },
        {
          "internalType": "string",
          "name": "_phone",
          "type": "string"
        },
        {
          "internalType": "string",
          "name": "_email",
          "type": "string"
        }
      ],
      "name": "registerPatient",
      "outputs": [],
      "stateMutability": "nonpayable",
      "type": "function"
    },
    {
      "inputs": [
        {
          "internalType": "address",
          "name": "_doctor",
          "type": "address"
        }
      ],
      "name": "revokeAccess",
      "outputs": [],
      "stateMutability": "nonpayable",
      "type": "function"
    }
  ],
  "transactionHash": "0xd77f43519322d1169c18198b299f92e695290b1305b50b68d909de56103cfcc8",
  "args": [],
  "numDeployments": 1,
  "solcInputHash": "9f53e76babdf4cec0eaa91f8c0205561",
  "bytecode": "0x608060405234801561001057600080fd5b506124df806100206000396000f3fe608060405234801561001057600080fd5b50600436106100ea5760003560e01c806385e685311161008c578063bfaf185a11610066578063bfaf185a14610238578063e3da7a5814610258578063e671926a1461026b578063fa2323d21461027e57600080fd5b806385e68531146101f1578063a2b55d3614610204578063bab90dbd1461021757600080fd5b80635f3269c6116100c85780635f3269c614610150578063785503901461017057806380b6b1b8146101af578063833b46bb146101de57600080fd5b80630ae5e739146100ef5780634b426178146101045780635986de6114610130575b600080fd5b6101026100fd366004611bf7565b610291565b005b610117610112366004611bf7565b6103ee565b6040516101279493929190611c6d565b60405180910390f35b61014361013e366004611bf7565b61071d565b6040516101279190611cb7565b61016361015e366004611bf7565b6108b6565b6040516101279190611d19565b61019f61017e366004611bf7565b6001600160a01b031660009081526001602052604090206002015460ff1690565b6040519015158152602001610127565b61019f6101bd366004611bf7565b6001600160a01b031660009081526020819052604090206005015460ff1690565b6101026101ec366004611e6c565b610bc9565b6101026101ff366004611bf7565b610cd2565b610102610212366004611ed0565b611079565b61022a610225366004611bf7565b6111a5565b604051610127929190611f93565b61024b610246366004611bf7565b61134b565b6040516101279190611fc1565b610143610266366004611bf7565b61181d565b610102610279366004612075565b61193b565b61010261028c3660046120b2565b6119dc565b3360009081526020819052604090206005015460ff166102cc5760405162461bcd60e51b81526004016102c390612144565b60405180910390fd5b6001600160a01b03811660009081526001602052604090206002015460ff166103075760405162461bcd60e51b81526004016102c39061217b565b3360009081526002602090815260408083206001600160a01b038516845290915290205460ff166103eb573360008181526002602090815260408083206001600160a01b038616808552908352818420805460ff1916600190811790915585855260038452828520805480830182559086528486200180546001600160a01b03199081168417909155828652600485528386208054928301815586529484902001805490941685179093558051938452908301919091527f9f520b3bfc56d06f7065d10b4683b3f57ac8895d5026cd176dee95ce1454cb8d91015b60405180910390a15b50565b6001600160a01b038116600090815260208190526040812060050154606091908290819060ff166104315760405162461bcd60e51b81526004016102c390612144565b6001600160a01b038516600090815260208190526040808220815160c08101909252805482908290610462906121b2565b80601f016020809104026020016040519081016040528092919081815260200182805461048e906121b2565b80156104db5780601f106104b0576101008083540402835291602001916104db565b820191906000526020600020905b8154815290600101906020018083116104be57829003601f168201915b50505050508152602001600182015481526020016002820180546104fe906121b2565b80601f016020809104026020016040519081016040528092919081815260200182805461052a906121b2565b80156105775780601f1061054c57610100808354040283529160200191610577565b820191906000526020600020905b81548152906001019060200180831161055a57829003601f168201915b50505050508152602001600382018054610590906121b2565b80601f01602080910402602001604051908101604052809291908181526020018280546105bc906121b2565b80156106095780601f106105de57610100808354040283529160200191610609565b820191906000526020600020905b8154815290600101906020018083116105ec57829003601f168201915b5050505050815260200160048201805480602002602001604051908101604052809291908181526020016000905b828210156106e3578382906000526020600020018054610656906121b2565b80601f0160208091040260200160405190810160405280929190818152602001828054610682906121b2565b80156106cf5780601f106106a4576101008083540402835291602001916106cf565b820191906000526020600020905b8154815290600101906020018083116106b257829003601f168201915b505050505081526020019060010190610637565b505050908252506005919091015460ff16151560209182015281519082015160408301516060909301519199909850919650945092505050565b6060336001600160a01b038316148061075957506001600160a01b038216600090815260026020908152604080832033845290915290205460ff165b6107cb5760405162461bcd60e51b815260206004820152603860248201527f4e6f7420617574686f72697a656420746f20616363657373207468697320706160448201527f7469656e742773206d65646963616c20686973746f72792e000000000000000060648201526084016102c3565b6001600160a01b03821660009081526020818152604080832060040180548251818502810185019093528083529193909284015b828210156108ab57838290600052602060002001805461081e906121b2565b80601f016020809104026020016040519081016040528092919081815260200182805461084a906121b2565b80156108975780601f1061086c57610100808354040283529160200191610897565b820191906000526020600020905b81548152906001019060200180831161087a57829003601f168201915b5050505050815260200190600101906107ff565b505050509050919050565b6001600160a01b03811660009081526020819052604090206005015460609060ff166108f45760405162461bcd60e51b81526004016102c390612144565b6001600160a01b03821660009081526003602090815260408083208054825181850281018501909352808352919290919083018282801561095e57602002820191906000526020600020905b81546001600160a01b03168152600190910190602001808311610940575b505050505090506000815167ffffffffffffffff81111561098157610981611db5565b6040519080825280602002602001820160405280156109df57816020015b6109cc604051806060016040528060006001600160a01b0316815260200160608152602001606081525090565b81526020019060019003908161099f5790505b50905060005b8251811015610bc1576000838281518110610a0257610a026121ec565b602002602001015190506040518060600160405280826001600160a01b0316815260200160016000846001600160a01b03166001600160a01b031681526020019081526020016000206000018054610a59906121b2565b80601f0160208091040260200160405190810160405280929190818152602001828054610a85906121b2565b8015610ad25780601f10610aa757610100808354040283529160200191610ad2565b820191906000526020600020905b815481529060010190602001808311610ab557829003601f168201915b5050505050815260200160016000846001600160a01b03166001600160a01b031681526020019081526020016000206001018054610b0f906121b2565b80601f0160208091040260200160405190810160405280929190818152602001828054610b3b906121b2565b8015610b885780601f10610b5d57610100808354040283529160200191610b88565b820191906000526020600020905b815481529060010190602001808311610b6b57829003601f168201915b5050505050815250838381518110610ba257610ba26121ec565b6020026020010181905250508080610bb990612218565b9150506109e5565b509392505050565b3360009081526001602052604090206002015460ff1615610c2c5760405162461bcd60e51b815260206004820152601d60248201527f446f63746f7220697320616c726561647920726567697374657265642e00000060448201526064016102c3565b604080516060810182528381526020808201849052600182840181905233600090815291529190912081518190610c639082612280565b5060208201516001820190610c789082612280565b50604091820151600291909101805460ff1916911515919091179055517fbc3a5b2aeb1bc52e3d56d3fd3423dd66cea5ecff8ae1f3bd0d75a0e608da7b8590610cc690339085908590612340565b60405180910390a15050565b3360009081526020819052604090206005015460ff16610d045760405162461bcd60e51b81526004016102c390612144565b3360009081526002602090815260408083206001600160a01b038516845290915290205460ff16610d6d5760405162461bcd60e51b815260206004820152601360248201527220b1b1b2b9b9903737ba1033b930b73a32b21760691b60448201526064016102c3565b3360009081526002602090815260408083206001600160a01b03851684529091528120805460ff191690555b33600090815260036020526040902054811015610ede5733600090815260036020526040902080546001600160a01b038416919083908110610ddd57610ddd6121ec565b6000918252602090912001546001600160a01b031603610ecc573360009081526003602052604090208054610e1490600190612380565b81548110610e2457610e246121ec565b60009182526020808320909101543383526003909152604090912080546001600160a01b039092169183908110610e5d57610e5d6121ec565b600091825260208083209190910180546001600160a01b0319166001600160a01b039490941693909317909255338152600390915260409020805480610ea557610ea5612399565b600082815260209020810160001990810180546001600160a01b0319169055019055610ede565b80610ed681612218565b915050610d99565b5060005b6001600160a01b03821660009081526004602052604090205481101561103a576001600160a01b0382166000908152600460205260409020805433919083908110610f2f57610f2f6121ec565b6000918252602090912001546001600160a01b031603611028576001600160a01b03821660009081526004602052604090208054610f6f90600190612380565b81548110610f7f57610f7f6121ec565b60009182526020808320909101546001600160a01b03858116845260049092526040909220805491909216919083908110610fbc57610fbc6121ec565b600091825260208083209190910180546001600160a01b0319166001600160a01b03948516179055918416815260049091526040902080548061100157611001612399565b600082815260209020810160001990810180546001600160a01b031916905501905561103a565b8061103281612218565b915050610ee2565b50604080513381526001600160a01b03831660208201527f825c8be24eb0df19500f63e86c29e7d0d951e73056b889b891d85e40938d9b6e91016103e2565b3360009081526020819052604090206005015460ff166110ea5760405162461bcd60e51b815260206004820152602660248201527f50617469656e7420686173206e6f7420726567697374657265642062617369636044820152651034b733379760d11b60648201526084016102c3565b60005b815181101561115b57336000908152602081905260409020825160049091019083908390811061111f5761111f6121ec565b602090810291909101810151825460018101845560009384529190922001906111489082612280565b508061115381612218565b9150506110ed565b50336000818152602081905260409081902090517f65bfaa8d145d786901dab223a0cefc0bcd8a303521431fe6b451196bb18bf0ab926103e292909160028201916003019061242c565b6001600160a01b038116600090815260016020526040902060020154606090819060ff166111e55760405162461bcd60e51b81526004016102c39061217b565b6001600160a01b038316600090815260016020526040808220815160608101909252805482908290611216906121b2565b80601f0160208091040260200160405190810160405280929190818152602001828054611242906121b2565b801561128f5780601f106112645761010080835404028352916020019161128f565b820191906000526020600020905b81548152906001019060200180831161127257829003601f168201915b505050505081526020016001820180546112a8906121b2565b80601f01602080910402602001604051908101604052809291908181526020018280546112d4906121b2565b80156113215780601f106112f657610100808354040283529160200191611321565b820191906000526020600020905b81548152906001019060200180831161130457829003601f168201915b50505091835250506002919091015460ff1615156020918201528151910151909590945092505050565b6001600160a01b03811660009081526001602052604090206002015460609060ff166113895760405162461bcd60e51b81526004016102c39061217b565b6001600160a01b0382166000908152600460209081526040808320805482518185028101850190935280835291929091908301828280156113f357602002820191906000526020600020905b81546001600160a01b031681526001909101906020018083116113d5575b505050505090506000815167ffffffffffffffff81111561141657611416611db5565b60405190808252806020026020018201604052801561148257816020015b61146f6040518060a0016040528060006001600160a01b03168152602001606081526020016000815260200160608152602001606081525090565b8152602001906001900390816114345790505b50905060005b8251811015610bc15760008382815181106114a5576114a56121ec565b6020908102919091018101516001600160a01b038082166000908152600284526040808220928b168252919093529091205490915060ff161561180a576001600160a01b038116600090815260208190526040808220815160c08101909252805482908290611513906121b2565b80601f016020809104026020016040519081016040528092919081815260200182805461153f906121b2565b801561158c5780601f106115615761010080835404028352916020019161158c565b820191906000526020600020905b81548152906001019060200180831161156f57829003601f168201915b50505050508152602001600182015481526020016002820180546115af906121b2565b80601f01602080910402602001604051908101604052809291908181526020018280546115db906121b2565b80156116285780601f106115fd57610100808354040283529160200191611628565b820191906000526020600020905b81548152906001019060200180831161160b57829003601f168201915b50505050508152602001600382018054611641906121b2565b80601f016020809104026020016040519081016040528092919081815260200182805461166d906121b2565b80156116ba5780601f1061168f576101008083540402835291602001916116ba565b820191906000526020600020905b81548152906001019060200180831161169d57829003601f168201915b5050505050815260200160048201805480602002602001604051908101604052809291908181526020016000905b82821015611794578382906000526020600020018054611707906121b2565b80601f0160208091040260200160405190810160405280929190818152602001828054611733906121b2565b80156117805780601f1061175557610100808354040283529160200191611780565b820191906000526020600020905b81548152906001019060200180831161176357829003601f168201915b5050505050815260200190600101906116e8565b505050908252506005919091015460ff1615156020918201526040805160a0810182526001600160a01b0386168152835181840152918301518282015282015160608083019190915282015160808201528551919250908590859081106117fd576117fd6121ec565b6020026020010181905250505b508061181581612218565b915050611488565b6001600160a01b03811660009081526020819052604090206005015460609060ff1661185b5760405162461bcd60e51b81526004016102c390612144565b6001600160a01b03821660009081526020818152604080832060040180548251818502810185019093528083529193909284015b828210156108ab5783829060005260206000200180546118ae906121b2565b80601f01602080910402602001604051908101604052809291908181526020018280546118da906121b2565b80156119275780601f106118fc57610100808354040283529160200191611927565b820191906000526020600020905b81548152906001019060200180831161190a57829003601f168201915b50505050508152602001906001019061188f565b3360009081526020819052604090206005015460ff1661196d5760405162461bcd60e51b81526004016102c390612144565b33600090815260208181526040822060040180546001810182559083529120016119978282612280565b50336001600160a01b03167f381664328a13775cdca4159b54873d48827358a58c62dac10944c743ecb7ad9b826040516119d19190612462565b60405180910390a250565b3360009081526020819052604090206005015460ff1615611a3f5760405162461bcd60e51b815260206004820152601e60248201527f50617469656e7420697320616c726561647920726567697374657265642e000060448201526064016102c3565b6040805160c0810182528581526020808201869052818301859052606082810185905260808301819052600160a08401523360009081529182905292902081518190611a8b9082612280565b506020820151600182015560408201516002820190611aaa9082612280565b5060608201516003820190611abf9082612280565b5060808201518051611adb916004840191602090910190611b3a565b5060a091909101516005909101805460ff19169115159190911790556040517f096f893428730b9f440cde9930f6fbd450ce2d7ac1f2895f0d869da7376a36d190611b2b90339088908890612475565b60405180910390a15050505050565b828054828255906000526020600020908101928215611b80579160200282015b82811115611b805782518290611b709082612280565b5091602001919060010190611b5a565b50611b8c929150611b90565b5090565b80821115611b8c576000611ba48282611bad565b50600101611b90565b508054611bb9906121b2565b6000825580601f10611bc9575050565b601f0160209004906000526020600020908101906103eb91905b80821115611b8c5760008155600101611be3565b600060208284031215611c0957600080fd5b81356001600160a01b0381168114611c2057600080fd5b9392505050565b6000815180845260005b81811015611c4d57602081850181015186830182015201611c31565b506000602082860101526020601f19601f83011685010191505092915050565b608081526000611c806080830187611c27565b8560208401528281036040840152611c988186611c27565b90508281036060840152611cac8185611c27565b979650505050505050565b6000602080830181845280855180835260408601915060408160051b870101925083870160005b82811015611d0c57603f19888603018452611cfa858351611c27565b94509285019290850190600101611cde565b5092979650505050505050565b60006020808301818452808551808352604092508286019150828160051b87010184880160005b83811015611da757888303603f19018552815180516001600160a01b0316845287810151606089860181905290611d7982870182611c27565b91505087820151915084810388860152611d938183611c27565b968901969450505090860190600101611d40565b509098975050505050505050565b634e487b7160e01b600052604160045260246000fd5b604051601f8201601f1916810167ffffffffffffffff81118282101715611df457611df4611db5565b604052919050565b600082601f830112611e0d57600080fd5b813567ffffffffffffffff811115611e2757611e27611db5565b611e3a601f8201601f1916602001611dcb565b818152846020838601011115611e4f57600080fd5b816020850160208301376000918101602001919091529392505050565b60008060408385031215611e7f57600080fd5b823567ffffffffffffffff80821115611e9757600080fd5b611ea386838701611dfc565b93506020850135915080821115611eb957600080fd5b50611ec685828601611dfc565b9150509250929050565b60006020808385031215611ee357600080fd5b823567ffffffffffffffff80821115611efb57600080fd5b818501915085601f830112611f0f57600080fd5b813581811115611f2157611f21611db5565b8060051b611f30858201611dcb565b9182528381018501918581019089841115611f4a57600080fd5b86860192505b83831015611f8657823585811115611f685760008081fd5b611f768b89838a0101611dfc565b8352509186019190860190611f50565b9998505050505050505050565b604081526000611fa66040830185611c27565b8281036020840152611fb88185611c27565b95945050505050565b60006020808301818452808551808352604092508286019150828160051b87010184880160005b83811015611da757888303603f19018552815180516001600160a01b031684528781015160a08986018190529061202182870182611c27565b9150508782015188860152606080830151868303828801526120438382611c27565b92505050608080830151925085820381870152506120618183611c27565b968901969450505090860190600101611fe8565b60006020828403121561208757600080fd5b813567ffffffffffffffff81111561209e57600080fd5b6120aa84828501611dfc565b949350505050565b600080600080608085870312156120c857600080fd5b843567ffffffffffffffff808211156120e057600080fd5b6120ec88838901611dfc565b955060208701359450604087013591508082111561210957600080fd5b61211588838901611dfc565b9350606087013591508082111561212b57600080fd5b5061213887828801611dfc565b91505092959194509250565b6020808252601a908201527f50617469656e74206973206e6f7420726567697374657265642e000000000000604082015260600190565b60208082526019908201527f446f63746f72206973206e6f7420726567697374657265642e00000000000000604082015260600190565b600181811c908216806121c657607f821691505b6020821081036121e657634e487b7160e01b600052602260045260246000fd5b50919050565b634e487b7160e01b600052603260045260246000fd5b634e487b7160e01b600052601160045260246000fd5b60006001820161222a5761222a612202565b5060010190565b601f82111561227b57600081815260208120601f850160051c810160208610156122585750805b601f850160051c820191505b8181101561227757828155600101612264565b5050505b505050565b815167ffffffffffffffff81111561229a5761229a611db5565b6122ae816122a884546121b2565b84612231565b602080601f8311600181146122e357600084156122cb5750858301515b600019600386901b1c1916600185901b178555612277565b600085815260208120601f198616915b82811015612312578886015182559484019460019091019084016122f3565b50858210156123305787850151600019600388901b60f8161c191681555b5050505050600190811b01905550565b6001600160a01b038416815260606020820181905260009061236490830185611c27565b82810360408401526123768185611c27565b9695505050505050565b8181038181111561239357612393612202565b92915050565b634e487b7160e01b600052603160045260246000fd5b600081546123bc816121b2565b8085526020600183811680156123d957600181146123f357612421565b60ff1985168884015283151560051b880183019550612421565b866000528260002060005b858110156124195781548a82018601529083019084016123fe565b890184019650505b505050505092915050565b6001600160a01b0384168152606060208201819052600090612450908301856123af565b828103604084015261237681856123af565b602081526000611c206020830184611c27565b6001600160a01b038416815260606020820181905260009061249990830185611c27565b905082604083015294935050505056fea2646970667358221220fd039d2a6286741e41e2bbf357344ed018d89ce1b1e4ab6c925f5997cdf87eaa64736f6c63430008140033",
  "devdoc": {
    "kind": "dev",
    "methods": {},
    "version": 1
  },
  "userdoc": {
    "kind": "user",
    "methods": {},
    "version": 1
  },
  "storageLayout": {
    "storage": [
      {
        "astId": 46,
        "contract": "contracts/PatientRegistry.sol:PatientRegistry",
        "label": "patients",
        "offset": 0,
        "slot": "0",
        "type": "t_mapping(t_address,t_struct(Patient)16_storage)"
      },
      {
        "astId": 51,
        "contract": "contracts/PatientRegistry.sol:PatientRegistry",
        "label": "doctors",
        "offset": 0,
        "slot": "1",
        "type": "t_mapping(t_address,t_struct(Doctor)23_storage)"
      },
      {
        "astId": 57,
        "contract": "contracts/PatientRegistry.sol:PatientRegistry",
        "label": "doctorPermissions",
        "offset": 0,
        "slot": "2",
        "type": "t_mapping(t_address,t_mapping(t_address,t_bool))"
      },
      {
        "astId": 62,
        "contract": "contracts/PatientRegistry.sol:PatientRegistry",
        "label": "grantedDoctors",
        "offset": 0,
        "slot": "3",
        "type": "t_mapping(t_address,t_array(t_address)dyn_storage)"
      },
      {
        "astId": 67,
        "contract": "contracts/PatientRegistry.sol:PatientRegistry",
        "label": "accessiblePatients",
        "offset": 0,
        "slot": "4",
        "type": "t_mapping(t_address,t_array(t_address)dyn_storage)"
      }
    ],
    "types": {
      "t_address": {
        "encoding": "inplace",
        "label": "address",
        "numberOfBytes": "20"
      },
      "t_array(t_address)dyn_storage": {
        "base": "t_address",
        "encoding": "dynamic_array",
        "label": "address[]",
        "numberOfBytes": "32"
      },
      "t_array(t_string_storage)dyn_storage": {
        "base": "t_string_storage",
        "encoding": "dynamic_array",
        "label": "string[]",
        "numberOfBytes": "32"
      },
      "t_bool": {
        "encoding": "inplace",
        "label": "bool",
        "numberOfBytes": "1"
      },
      "t_mapping(t_address,t_array(t_address)dyn_storage)": {
        "encoding": "mapping",
        "key": "t_address",
        "label": "mapping(address => address[])",
        "numberOfBytes": "32",
        "value": "t_array(t_address)dyn_storage"
      },
      "t_mapping(t_address,t_bool)": {
        "encoding": "mapping",
        "key": "t_address",
        "label": "mapping(address => bool)",
        "numberOfBytes": "32",
        "value": "t_bool"
      },
      "t_mapping(t_address,t_mapping(t_address,t_bool))": {
        "encoding": "mapping",
        "key": "t_address",
        "label": "mapping(address => mapping(address => bool))",
        "numberOfBytes": "32",
        "value": "t_mapping(t_address,t_bool)"
      },
      "t_mapping(t_address,t_struct(Doctor)23_storage)": {
        "encoding": "mapping",
        "key": "t_address",
        "label": "mapping(address => struct PatientRegistry.Doctor)",
        "numberOfBytes": "32",
        "value": "t_struct(Doctor)23_storage"
      },
      "t_mapping(t_address,t_struct(Patient)16_storage)": {
        "encoding": "mapping",
        "key": "t_address",
        "label": "mapping(address => struct PatientRegistry.Patient)",
        "numberOfBytes": "32",
        "value": "t_struct(Patient)16_storage"
      },
      "t_string_storage": {
        "encoding": "bytes",
        "label": "string",
        "numberOfBytes": "32"
      },
      "t_struct(Doctor)23_storage": {
        "encoding": "inplace",
        "label": "struct PatientRegistry.Doctor",
        "members": [
          {
            "astId": 18,
            "contract": "contracts/PatientRegistry.sol:PatientRegistry",
            "label": "name",
            "offset": 0,
            "slot": "0",
            "type": "t_string_storage"
          },
          {
            "astId": 20,
            "contract": "contracts/PatientRegistry.sol:PatientRegistry",
            "label": "specialization",
            "offset": 0,
            "slot": "1",
            "type": "t_string_storage"
          },
          {
            "astId": 22,
            "contract": "contracts/PatientRegistry.sol:PatientRegistry",
            "label": "isRegistered",
            "offset": 0,
            "slot": "2",
            "type": "t_bool"
          }
        ],
        "numberOfBytes": "96"
      },
      "t_struct(Patient)16_storage": {
        "encoding": "inplace",
        "label": "struct PatientRegistry.Patient",
        "members": [
          {
            "astId": 4,
            "contract": "contracts/PatientRegistry.sol:PatientRegistry",
            "label": "name",
            "offset": 0,
            "slot": "0",
            "type": "t_string_storage"
          },
          {
            "astId": 6,
            "contract": "contracts/PatientRegistry.sol:PatientRegistry",
            "label": "age",
            "offset": 0,
            "slot": "1",
            "type": "t_uint256"
          },
          {
            "astId": 8,
            "contract": "contracts/PatientRegistry.sol:PatientRegistry",
            "label": "phone",
            "offset": 0,
            "slot": "2",
            "type": "t_string_storage"
          },
          {
            "astId": 10,
            "contract": "contracts/PatientRegistry.sol:PatientRegistry",
            "label": "email",
            "offset": 0,
            "slot": "3",
            "type": "t_string_storage"
          },
          {
            "astId": 13,
            "contract": "contracts/PatientRegistry.sol:PatientRegistry",
            "label": "medicalHistory",
            "offset": 0,
            "slot": "4",
            "type": "t_array(t_string_storage)dyn_storage"
          },
          {
            "astId": 15,
            "contract": "contracts/PatientRegistry.sol:PatientRegistry",
            "label": "isRegistered",
            "offset": 0,
            "slot": "5",
            "type": "t_bool"
          }
        ],
        "numberOfBytes": "192"
      },
      "t_uint256": {
        "encoding": "inplace",
        "label": "uint256",
        "numberOfBytes": "32"
      }
    }
  }
}